{
  "_format": "hh-sol-artifact-1",
  "contractName": "NFT",
  "sourceName": "contracts/NFT.sol",
  "abi": [
    {
      "inputs": [
        {
          "internalType": "address",
          "name": "marketplaceAddress",
          "type": "address"
        }
      ],
      "stateMutability": "nonpayable",
      "type": "constructor"
    },
    {
      "anonymous": false,
      "inputs": [
        {
          "indexed": true,
          "internalType": "address",
          "name": "owner",
          "type": "address"
        },
        {
          "indexed": true,
          "internalType": "address",
          "name": "approved",
          "type": "address"
        },
        {
          "indexed": true,
          "internalType": "uint256",
          "name": "tokenId",
          "type": "uint256"
        }
      ],
      "name": "Approval",
      "type": "event"
    },
    {
      "anonymous": false,
      "inputs": [
        {
          "indexed": true,
          "internalType": "address",
          "name": "owner",
          "type": "address"
        },
        {
          "indexed": true,
          "internalType": "address",
          "name": "operator",
          "type": "address"
        },
        {
          "indexed": false,
          "internalType": "bool",
          "name": "approved",
          "type": "bool"
        }
      ],
      "name": "ApprovalForAll",
      "type": "event"
    },
    {
      "anonymous": false,
      "inputs": [
        {
          "indexed": true,
          "internalType": "address",
          "name": "from",
          "type": "address"
        },
        {
          "indexed": true,
          "internalType": "address",
          "name": "to",
          "type": "address"
        },
        {
          "indexed": true,
          "internalType": "uint256",
          "name": "tokenId",
          "type": "uint256"
        }
      ],
      "name": "Transfer",
      "type": "event"
    },
    {
      "inputs": [
        {
          "internalType": "address",
          "name": "to",
          "type": "address"
        },
        {
          "internalType": "uint256",
          "name": "tokenId",
          "type": "uint256"
        }
      ],
      "name": "approve",
      "outputs": [],
      "stateMutability": "nonpayable",
      "type": "function"
    },
    {
      "inputs": [
        {
          "internalType": "address",
          "name": "owner",
          "type": "address"
        }
      ],
      "name": "balanceOf",
      "outputs": [
        {
          "internalType": "uint256",
          "name": "",
          "type": "uint256"
        }
      ],
      "stateMutability": "view",
      "type": "function"
    },
    {
      "inputs": [],
      "name": "createToken",
      "outputs": [
        {
          "internalType": "uint256",
          "name": "",
          "type": "uint256"
        }
      ],
      "stateMutability": "nonpayable",
      "type": "function"
    },
    {
      "inputs": [
        {
          "internalType": "uint256",
          "name": "tokenId",
          "type": "uint256"
        }
      ],
      "name": "getApproved",
      "outputs": [
        {
          "internalType": "address",
          "name": "",
          "type": "address"
        }
      ],
      "stateMutability": "view",
      "type": "function"
    },
    {
      "inputs": [
        {
          "internalType": "address",
          "name": "owner",
          "type": "address"
        },
        {
          "internalType": "address",
          "name": "operator",
          "type": "address"
        }
      ],
      "name": "isApprovedForAll",
      "outputs": [
        {
          "internalType": "bool",
          "name": "",
          "type": "bool"
        }
      ],
      "stateMutability": "view",
      "type": "function"
    },
    {
      "inputs": [],
      "name": "name",
      "outputs": [
        {
          "internalType": "string",
          "name": "",
          "type": "string"
        }
      ],
      "stateMutability": "view",
      "type": "function"
    },
    {
      "inputs": [
        {
          "internalType": "uint256",
          "name": "tokenId",
          "type": "uint256"
        }
      ],
      "name": "ownerOf",
      "outputs": [
        {
          "internalType": "address",
          "name": "",
          "type": "address"
        }
      ],
      "stateMutability": "view",
      "type": "function"
    },
    {
      "inputs": [
        {
          "internalType": "address",
          "name": "from",
          "type": "address"
        },
        {
          "internalType": "address",
          "name": "to",
          "type": "address"
        },
        {
          "internalType": "uint256",
          "name": "tokenId",
          "type": "uint256"
        }
      ],
      "name": "safeTransferFrom",
      "outputs": [],
      "stateMutability": "nonpayable",
      "type": "function"
    },
    {
      "inputs": [
        {
          "internalType": "address",
          "name": "from",
          "type": "address"
        },
        {
          "internalType": "address",
          "name": "to",
          "type": "address"
        },
        {
          "internalType": "uint256",
          "name": "tokenId",
          "type": "uint256"
        },
        {
          "internalType": "bytes",
          "name": "_data",
          "type": "bytes"
        }
      ],
      "name": "safeTransferFrom",
      "outputs": [],
      "stateMutability": "nonpayable",
      "type": "function"
    },
    {
      "inputs": [
        {
          "internalType": "address",
          "name": "operator",
          "type": "address"
        },
        {
          "internalType": "bool",
          "name": "approved",
          "type": "bool"
        }
      ],
      "name": "setApprovalForAll",
      "outputs": [],
      "stateMutability": "nonpayable",
      "type": "function"
    },
    {
      "inputs": [
        {
          "internalType": "bytes4",
          "name": "interfaceId",
          "type": "bytes4"
        }
      ],
      "name": "supportsInterface",
      "outputs": [
        {
          "internalType": "bool",
          "name": "",
          "type": "bool"
        }
      ],
      "stateMutability": "view",
      "type": "function"
    },
    {
      "inputs": [],
      "name": "symbol",
      "outputs": [
        {
          "internalType": "string",
          "name": "",
          "type": "string"
        }
      ],
      "stateMutability": "view",
      "type": "function"
    },
    {
      "inputs": [
        {
          "internalType": "uint256",
          "name": "tokenId",
          "type": "uint256"
        }
      ],
      "name": "tokenURI",
      "outputs": [
        {
          "internalType": "string",
          "name": "",
          "type": "string"
        }
      ],
      "stateMutability": "view",
      "type": "function"
    },
    {
      "inputs": [
        {
          "internalType": "address",
          "name": "from",
          "type": "address"
        },
        {
          "internalType": "address",
          "name": "to",
          "type": "address"
        },
        {
          "internalType": "uint256",
          "name": "tokenId",
          "type": "uint256"
        }
      ],
      "name": "transferFrom",
      "outputs": [],
      "stateMutability": "nonpayable",
      "type": "function"
    }
  ],
  "bytecode": "0x60806040523480156200001157600080fd5b5060405162002adf38038062002adf8339818101604052810190620000379190620001e6565b6040518060400160405280600a81526020017f41527420537461747565000000000000000000000000000000000000000000008152506040518060400160405280600481526020017f41525453000000000000000000000000000000000000000000000000000000008152508160009080519060200190620000bb9291906200011f565b508060019080519060200190620000d49291906200011f565b50505080600860006101000a81548173ffffffffffffffffffffffffffffffffffffffff021916908373ffffffffffffffffffffffffffffffffffffffff16021790555050620002c5565b8280546200012d9062000246565b90600052602060002090601f0160209004810192826200015157600085556200019d565b82601f106200016c57805160ff19168380011785556200019d565b828001600101855582156200019d579182015b828111156200019c5782518255916020019190600101906200017f565b5b509050620001ac9190620001b0565b5090565b5b80821115620001cb576000816000905550600101620001b1565b5090565b600081519050620001e081620002ab565b92915050565b600060208284031215620001f957600080fd5b60006200020984828501620001cf565b91505092915050565b60006200021f8262000226565b9050919050565b600073ffffffffffffffffffffffffffffffffffffffff82169050919050565b600060028204905060018216806200025f57607f821691505b602082108114156200027657620002756200027c565b5b50919050565b7f4e487b7100000000000000000000000000000000000000000000000000000000600052602260045260246000fd5b620002b68162000212565b8114620002c257600080fd5b50565b61280a80620002d56000396000f3fe608060405234801561001057600080fd5b50600436106100ea5760003560e01c806370a082311161008c578063a22cb46511610066578063a22cb4651461025d578063b88d4fde14610279578063c87b56dd14610295578063e985e9c5146102c5576100ea565b806370a08231146101f157806395d89b41146102215780639cbf9e361461023f576100ea565b8063095ea7b3116100c8578063095ea7b31461016d57806323b872dd1461018957806342842e0e146101a55780636352211e146101c1576100ea565b806301ffc9a7146100ef57806306fdde031461011f578063081812fc1461013d575b600080fd5b61010960048036038101906101049190611a54565b6102f5565b60405161011691906121b2565b60405180910390f35b6101276103d7565b60405161013491906121cd565b60405180910390f35b61015760048036038101906101529190611aa6565b610469565b604051610164919061214b565b60405180910390f35b61018760048036038101906101829190611a18565b6104ee565b005b6101a3600480360381019061019e9190611912565b610606565b005b6101bf60048036038101906101ba9190611912565b610666565b005b6101db60048036038101906101d69190611aa6565b610686565b6040516101e8919061214b565b60405180910390f35b61020b600480360381019061020691906118ad565b610738565b60405161021891906123cf565b60405180910390f35b6102296107f0565b60405161023691906121cd565b60405180910390f35b610247610882565b60405161025491906123cf565b60405180910390f35b610277600480360381019061027291906119dc565b6108da565b005b610293600480360381019061028e9190611961565b610a5b565b005b6102af60048036038101906102aa9190611aa6565b610abd565b6040516102bc91906121cd565b60405180910390f35b6102df60048036038101906102da91906118d6565b610c0f565b6040516102ec91906121b2565b60405180910390f35b60007f80ac58cd000000000000000000000000000000000000000000000000000000007bffffffffffffffffffffffffffffffffffffffffffffffffffffffff1916827bffffffffffffffffffffffffffffffffffffffffffffffffffffffff191614806103c057507f5b5e139f000000000000000000000000000000000000000000000000000000007bffffffffffffffffffffffffffffffffffffffffffffffffffffffff1916827bffffffffffffffffffffffffffffffffffffffffffffffffffffffff1916145b806103d057506103cf82610ca3565b5b9050919050565b6060600080546103e6906125ff565b80601f0160208091040260200160405190810160405280929190818152602001828054610412906125ff565b801561045f5780601f106104345761010080835404028352916020019161045f565b820191906000526020600020905b81548152906001019060200180831161044257829003601f168201915b5050505050905090565b600061047482610d0d565b6104b3576040517f08c379a00000000000000000000000000000000000000000000000000000000081526004016104aa9061232f565b60405180910390fd5b6004600083815260200190815260200160002060009054906101000a900473ffffffffffffffffffffffffffffffffffffffff169050919050565b60006104f982610686565b90508073ffffffffffffffffffffffffffffffffffffffff168373ffffffffffffffffffffffffffffffffffffffff16141561056a576040517f08c379a00000000000000000000000000000000000000000000000000000000081526004016105619061238f565b60405180910390fd5b8073ffffffffffffffffffffffffffffffffffffffff16610589610d79565b73ffffffffffffffffffffffffffffffffffffffff1614806105b857506105b7816105b2610d79565b610c0f565b5b6105f7576040517f08c379a00000000000000000000000000000000000000000000000000000000081526004016105ee9061228f565b60405180910390fd5b6106018383610d81565b505050565b610617610611610d79565b82610e3a565b610656576040517f08c379a000000000000000000000000000000000000000000000000000000000815260040161064d906123af565b60405180910390fd5b610661838383610f18565b505050565b61068183838360405180602001604052806000815250610a5b565b505050565b6000806002600084815260200190815260200160002060009054906101000a900473ffffffffffffffffffffffffffffffffffffffff169050600073ffffffffffffffffffffffffffffffffffffffff168173ffffffffffffffffffffffffffffffffffffffff16141561072f576040517f08c379a0000000000000000000000000000000000000000000000000000000008152600401610726906122cf565b60405180910390fd5b80915050919050565b60008073ffffffffffffffffffffffffffffffffffffffff168273ffffffffffffffffffffffffffffffffffffffff1614156107a9576040517f08c379a00000000000000000000000000000000000000000000000000000000081526004016107a0906122af565b60405180910390fd5b600360008373ffffffffffffffffffffffffffffffffffffffff1673ffffffffffffffffffffffffffffffffffffffff168152602001908152602001600020549050919050565b6060600180546107ff906125ff565b80601f016020809104026020016040519081016040528092919081815260200182805461082b906125ff565b80156108785780601f1061084d57610100808354040283529160200191610878565b820191906000526020600020905b81548152906001019060200180831161085b57829003601f168201915b5050505050905090565b600061088e6007611174565b600061089a600761118a565b90506108a63382611198565b6108d3600860009054906101000a900473ffffffffffffffffffffffffffffffffffffffff1660016108da565b8091505090565b6108e2610d79565b73ffffffffffffffffffffffffffffffffffffffff168273ffffffffffffffffffffffffffffffffffffffff161415610950576040517f08c379a00000000000000000000000000000000000000000000000000000000081526004016109479061224f565b60405180910390fd5b806005600061095d610d79565b73ffffffffffffffffffffffffffffffffffffffff1673ffffffffffffffffffffffffffffffffffffffff16815260200190815260200160002060008473ffffffffffffffffffffffffffffffffffffffff1673ffffffffffffffffffffffffffffffffffffffff16815260200190815260200160002060006101000a81548160ff0219169083151502179055508173ffffffffffffffffffffffffffffffffffffffff16610a0a610d79565b73ffffffffffffffffffffffffffffffffffffffff167f17307eab39ab6107e8899845ad3d59bd9653f200f220920489ca2b5937696c3183604051610a4f91906121b2565b60405180910390a35050565b610a6c610a66610d79565b83610e3a565b610aab576040517f08c379a0000000000000000000000000000000000000000000000000000000008152600401610aa2906123af565b60405180910390fd5b610ab784848484611366565b50505050565b6060610ac882610d0d565b610b07576040517f08c379a0000000000000000000000000000000000000000000000000000000008152600401610afe9061230f565b60405180910390fd5b6000600660008481526020019081526020016000208054610b27906125ff565b80601f0160208091040260200160405190810160405280929190818152602001828054610b53906125ff565b8015610ba05780601f10610b7557610100808354040283529160200191610ba0565b820191906000526020600020905b815481529060010190602001808311610b8357829003601f168201915b505050505090506000610bb16113c2565b9050600081511415610bc7578192505050610c0a565b600082511115610bfc578082604051602001610be4929190612127565b60405160208183030381529060405292505050610c0a565b610c05846113d9565b925050505b919050565b6000600560008473ffffffffffffffffffffffffffffffffffffffff1673ffffffffffffffffffffffffffffffffffffffff16815260200190815260200160002060008373ffffffffffffffffffffffffffffffffffffffff1673ffffffffffffffffffffffffffffffffffffffff16815260200190815260200160002060009054906101000a900460ff16905092915050565b60007f01ffc9a7000000000000000000000000000000000000000000000000000000007bffffffffffffffffffffffffffffffffffffffffffffffffffffffff1916827bffffffffffffffffffffffffffffffffffffffffffffffffffffffff1916149050919050565b60008073ffffffffffffffffffffffffffffffffffffffff166002600084815260200190815260200160002060009054906101000a900473ffffffffffffffffffffffffffffffffffffffff1673ffffffffffffffffffffffffffffffffffffffff1614159050919050565b600033905090565b816004600083815260200190815260200160002060006101000a81548173ffffffffffffffffffffffffffffffffffffffff021916908373ffffffffffffffffffffffffffffffffffffffff160217905550808273ffffffffffffffffffffffffffffffffffffffff16610df483610686565b73ffffffffffffffffffffffffffffffffffffffff167f8c5be1e5ebec7d5bd14f71427d1e84f3dd0314c0f7b2291e5b200ac8c7c3b92560405160405180910390a45050565b6000610e4582610d0d565b610e84576040517f08c379a0000000000000000000000000000000000000000000000000000000008152600401610e7b9061226f565b60405180910390fd5b6000610e8f83610686565b90508073ffffffffffffffffffffffffffffffffffffffff168473ffffffffffffffffffffffffffffffffffffffff161480610efe57508373ffffffffffffffffffffffffffffffffffffffff16610ee684610469565b73ffffffffffffffffffffffffffffffffffffffff16145b80610f0f5750610f0e8185610c0f565b5b91505092915050565b8273ffffffffffffffffffffffffffffffffffffffff16610f3882610686565b73ffffffffffffffffffffffffffffffffffffffff1614610f8e576040517f08c379a0000000000000000000000000000000000000000000000000000000008152600401610f859061234f565b60405180910390fd5b600073ffffffffffffffffffffffffffffffffffffffff168273ffffffffffffffffffffffffffffffffffffffff161415610ffe576040517f08c379a0000000000000000000000000000000000000000000000000000000008152600401610ff59061222f565b60405180910390fd5b611009838383611480565b611014600082610d81565b6001600360008573ffffffffffffffffffffffffffffffffffffffff1673ffffffffffffffffffffffffffffffffffffffff16815260200190815260200160002060008282546110649190612515565b925050819055506001600360008473ffffffffffffffffffffffffffffffffffffffff1673ffffffffffffffffffffffffffffffffffffffff16815260200190815260200160002060008282546110bb919061248e565b92505081905550816002600083815260200190815260200160002060006101000a81548173ffffffffffffffffffffffffffffffffffffffff021916908373ffffffffffffffffffffffffffffffffffffffff160217905550808273ffffffffffffffffffffffffffffffffffffffff168473ffffffffffffffffffffffffffffffffffffffff167fddf252ad1be2c89b69c2b068fc378daa952ba7f163c4a11628f55a4df523b3ef60405160405180910390a4505050565b6001816000016000828254019250508190555050565b600081600001549050919050565b600073ffffffffffffffffffffffffffffffffffffffff168273ffffffffffffffffffffffffffffffffffffffff161415611208576040517f08c379a00000000000000000000000000000000000000000000000000000000081526004016111ff906122ef565b60405180910390fd5b61121181610d0d565b15611251576040517f08c379a00000000000000000000000000000000000000000000000000000000081526004016112489061220f565b60405180910390fd5b61125d60008383611480565b6001600360008473ffffffffffffffffffffffffffffffffffffffff1673ffffffffffffffffffffffffffffffffffffffff16815260200190815260200160002060008282546112ad919061248e565b92505081905550816002600083815260200190815260200160002060006101000a81548173ffffffffffffffffffffffffffffffffffffffff021916908373ffffffffffffffffffffffffffffffffffffffff160217905550808273ffffffffffffffffffffffffffffffffffffffff16600073ffffffffffffffffffffffffffffffffffffffff167fddf252ad1be2c89b69c2b068fc378daa952ba7f163c4a11628f55a4df523b3ef60405160405180910390a45050565b611371848484610f18565b61137d84848484611485565b6113bc576040517f08c379a00000000000000000000000000000000000000000000000000000000081526004016113b3906121ef565b60405180910390fd5b50505050565b606060405180602001604052806000815250905090565b60606113e482610d0d565b611423576040517f08c379a000000000000000000000000000000000000000000000000000000000815260040161141a9061236f565b60405180910390fd5b600061142d6113c2565b9050600081511161144d5760405180602001604052806000815250611478565b806114578461161c565b604051602001611468929190612127565b6040516020818303038152906040525b915050919050565b505050565b60006114a68473ffffffffffffffffffffffffffffffffffffffff166117c9565b1561160f578373ffffffffffffffffffffffffffffffffffffffff1663150b7a026114cf610d79565b8786866040518563ffffffff1660e01b81526004016114f19493929190612166565b602060405180830381600087803b15801561150b57600080fd5b505af192505050801561153c57506040513d601f19601f820116820180604052508101906115399190611a7d565b60015b6115bf573d806000811461156c576040519150601f19603f3d011682016040523d82523d6000602084013e611571565b606091505b506000815114156115b7576040517f08c379a00000000000000000000000000000000000000000000000000000000081526004016115ae906121ef565b60405180910390fd5b805181602001fd5b63150b7a0260e01b7bffffffffffffffffffffffffffffffffffffffffffffffffffffffff1916817bffffffffffffffffffffffffffffffffffffffffffffffffffffffff191614915050611614565b600190505b949350505050565b60606000821415611664576040518060400160405280600181526020017f300000000000000000000000000000000000000000000000000000000000000081525090506117c4565b600082905060005b6000821461169657808061167f90612631565b915050600a8261168f91906124e4565b915061166c565b60008167ffffffffffffffff8111156116d8577f4e487b7100000000000000000000000000000000000000000000000000000000600052604160045260246000fd5b6040519080825280601f01601f19166020018201604052801561170a5781602001600182028036833780820191505090505b5090505b600085146117bd576001826117239190612515565b9150600a85611732919061267a565b603061173e919061248e565b60f81b81838151811061177a577f4e487b7100000000000000000000000000000000000000000000000000000000600052603260045260246000fd5b60200101907effffffffffffffffffffffffffffffffffffffffffffffffffffffffffffff1916908160001a905350600a856117b691906124e4565b945061170e565b8093505050505b919050565b600080823b905060008111915050919050565b60006117ef6117ea8461241b565b6123ea565b90508281526020810184848401111561180757600080fd5b6118128482856125bd565b509392505050565b60008135905061182981612778565b92915050565b60008135905061183e8161278f565b92915050565b600081359050611853816127a6565b92915050565b600081519050611868816127a6565b92915050565b600082601f83011261187f57600080fd5b813561188f8482602086016117dc565b91505092915050565b6000813590506118a7816127bd565b92915050565b6000602082840312156118bf57600080fd5b60006118cd8482850161181a565b91505092915050565b600080604083850312156118e957600080fd5b60006118f78582860161181a565b92505060206119088582860161181a565b9150509250929050565b60008060006060848603121561192757600080fd5b60006119358682870161181a565b93505060206119468682870161181a565b925050604061195786828701611898565b9150509250925092565b6000806000806080858703121561197757600080fd5b60006119858782880161181a565b94505060206119968782880161181a565b93505060406119a787828801611898565b925050606085013567ffffffffffffffff8111156119c457600080fd5b6119d08782880161186e565b91505092959194509250565b600080604083850312156119ef57600080fd5b60006119fd8582860161181a565b9250506020611a0e8582860161182f565b9150509250929050565b60008060408385031215611a2b57600080fd5b6000611a398582860161181a565b9250506020611a4a85828601611898565b9150509250929050565b600060208284031215611a6657600080fd5b6000611a7484828501611844565b91505092915050565b600060208284031215611a8f57600080fd5b6000611a9d84828501611859565b91505092915050565b600060208284031215611ab857600080fd5b6000611ac684828501611898565b91505092915050565b611ad881612549565b82525050565b611ae78161255b565b82525050565b6000611af88261244b565b611b028185612461565b9350611b128185602086016125cc565b611b1b81612767565b840191505092915050565b6000611b3182612456565b611b3b8185612472565b9350611b4b8185602086016125cc565b611b5481612767565b840191505092915050565b6000611b6a82612456565b611b748185612483565b9350611b848185602086016125cc565b80840191505092915050565b6000611b9d603283612472565b91507f4552433732313a207472616e7366657220746f206e6f6e20455243373231526560008301527f63656976657220696d706c656d656e74657200000000000000000000000000006020830152604082019050919050565b6000611c03601c83612472565b91507f4552433732313a20746f6b656e20616c7265616479206d696e746564000000006000830152602082019050919050565b6000611c43602483612472565b91507f4552433732313a207472616e7366657220746f20746865207a65726f2061646460008301527f72657373000000000000000000000000000000000000000000000000000000006020830152604082019050919050565b6000611ca9601983612472565b91507f4552433732313a20617070726f766520746f2063616c6c6572000000000000006000830152602082019050919050565b6000611ce9602c83612472565b91507f4552433732313a206f70657261746f7220717565727920666f72206e6f6e657860008301527f697374656e7420746f6b656e00000000000000000000000000000000000000006020830152604082019050919050565b6000611d4f603883612472565b91507f4552433732313a20617070726f76652063616c6c6572206973206e6f74206f7760008301527f6e6572206e6f7220617070726f76656420666f7220616c6c00000000000000006020830152604082019050919050565b6000611db5602a83612472565b91507f4552433732313a2062616c616e636520717565727920666f7220746865207a6560008301527f726f2061646472657373000000000000000000000000000000000000000000006020830152604082019050919050565b6000611e1b602983612472565b91507f4552433732313a206f776e657220717565727920666f72206e6f6e657869737460008301527f656e7420746f6b656e00000000000000000000000000000000000000000000006020830152604082019050919050565b6000611e81602083612472565b91507f4552433732313a206d696e7420746f20746865207a65726f20616464726573736000830152602082019050919050565b6000611ec1603183612472565b91507f45524337323155524953746f726167653a2055524920717565727920666f722060008301527f6e6f6e6578697374656e7420746f6b656e0000000000000000000000000000006020830152604082019050919050565b6000611f27602c83612472565b91507f4552433732313a20617070726f76656420717565727920666f72206e6f6e657860008301527f697374656e7420746f6b656e00000000000000000000000000000000000000006020830152604082019050919050565b6000611f8d602983612472565b91507f4552433732313a207472616e73666572206f6620746f6b656e2074686174206960008301527f73206e6f74206f776e00000000000000000000000000000000000000000000006020830152604082019050919050565b6000611ff3602f83612472565b91507f4552433732314d657461646174613a2055524920717565727920666f72206e6f60008301527f6e6578697374656e7420746f6b656e00000000000000000000000000000000006020830152604082019050919050565b6000612059602183612472565b91507f4552433732313a20617070726f76616c20746f2063757272656e74206f776e6560008301527f72000000000000000000000000000000000000000000000000000000000000006020830152604082019050919050565b60006120bf603183612472565b91507f4552433732313a207472616e736665722063616c6c6572206973206e6f74206f60008301527f776e6572206e6f7220617070726f7665640000000000000000000000000000006020830152604082019050919050565b612121816125b3565b82525050565b60006121338285611b5f565b915061213f8284611b5f565b91508190509392505050565b60006020820190506121606000830184611acf565b92915050565b600060808201905061217b6000830187611acf565b6121886020830186611acf565b6121956040830185612118565b81810360608301526121a78184611aed565b905095945050505050565b60006020820190506121c76000830184611ade565b92915050565b600060208201905081810360008301526121e78184611b26565b905092915050565b6000602082019050818103600083015261220881611b90565b9050919050565b6000602082019050818103600083015261222881611bf6565b9050919050565b6000602082019050818103600083015261224881611c36565b9050919050565b6000602082019050818103600083015261226881611c9c565b9050919050565b6000602082019050818103600083015261228881611cdc565b9050919050565b600060208201905081810360008301526122a881611d42565b9050919050565b600060208201905081810360008301526122c881611da8565b9050919050565b600060208201905081810360008301526122e881611e0e565b9050919050565b6000602082019050818103600083015261230881611e74565b9050919050565b6000602082019050818103600083015261232881611eb4565b9050919050565b6000602082019050818103600083015261234881611f1a565b9050919050565b6000602082019050818103600083015261236881611f80565b9050919050565b6000602082019050818103600083015261238881611fe6565b9050919050565b600060208201905081810360008301526123a88161204c565b9050919050565b600060208201905081810360008301526123c8816120b2565b9050919050565b60006020820190506123e46000830184612118565b92915050565b6000604051905081810181811067ffffffffffffffff8211171561241157612410612738565b5b8060405250919050565b600067ffffffffffffffff82111561243657612435612738565b5b601f19601f8301169050602081019050919050565b600081519050919050565b600081519050919050565b600082825260208201905092915050565b600082825260208201905092915050565b600081905092915050565b6000612499826125b3565b91506124a4836125b3565b9250827fffffffffffffffffffffffffffffffffffffffffffffffffffffffffffffffff038211156124d9576124d86126ab565b5b828201905092915050565b60006124ef826125b3565b91506124fa836125b3565b92508261250a576125096126da565b5b828204905092915050565b6000612520826125b3565b915061252b836125b3565b92508282101561253e5761253d6126ab565b5b828203905092915050565b600061255482612593565b9050919050565b60008115159050919050565b60007fffffffff0000000000000000000000000000000000000000000000000000000082169050919050565b600073ffffffffffffffffffffffffffffffffffffffff82169050919050565b6000819050919050565b82818337600083830152505050565b60005b838110156125ea5780820151818401526020810190506125cf565b838111156125f9576000848401525b50505050565b6000600282049050600182168061261757607f821691505b6020821081141561262b5761262a612709565b5b50919050565b600061263c826125b3565b91507fffffffffffffffffffffffffffffffffffffffffffffffffffffffffffffffff82141561266f5761266e6126ab565b5b600182019050919050565b6000612685826125b3565b9150612690836125b3565b9250826126a05761269f6126da565b5b828206905092915050565b7f4e487b7100000000000000000000000000000000000000000000000000000000600052601160045260246000fd5b7f4e487b7100000000000000000000000000000000000000000000000000000000600052601260045260246000fd5b7f4e487b7100000000000000000000000000000000000000000000000000000000600052602260045260246000fd5b7f4e487b7100000000000000000000000000000000000000000000000000000000600052604160045260246000fd5b6000601f19601f8301169050919050565b61278181612549565b811461278c57600080fd5b50565b6127988161255b565b81146127a357600080fd5b50565b6127af81612567565b81146127ba57600080fd5b50565b6127c6816125b3565b81146127d157600080fd5b5056fea264697066735822122047caa5b3d68bc99bb65946c2a226ad005a046df6bae7aff8a97c21edde97348764736f6c63430008000033",
  "linkReferences": {},
  "deployedLinkReferences": {}
}