{
  "_format": "hh-sol-artifact-1",
  "contractName": "NFTMarket",
  "sourceName": "contracts/NFTMarket.sol",
  "abi": [
    {
      "inputs": [],
      "stateMutability": "nonpayable",
      "type": "constructor"
    },
    {
      "anonymous": false,
      "inputs": [
        {
          "indexed": true,
          "internalType": "uint256",
          "name": "itemId",
          "type": "uint256"
        },
        {
          "indexed": true,
          "internalType": "address",
          "name": "nftContract",
          "type": "address"
        },
        {
          "indexed": true,
          "internalType": "uint256",
          "name": "tokenId",
          "type": "uint256"
        },
        {
          "indexed": false,
          "internalType": "address",
          "name": "seller",
          "type": "address"
        },
        {
          "indexed": false,
          "internalType": "address",
          "name": "owner",
          "type": "address"
        },
        {
          "indexed": false,
          "internalType": "uint256",
          "name": "price",
          "type": "uint256"
        },
        {
          "indexed": false,
          "internalType": "bool",
          "name": "sold",
          "type": "bool"
        },
        {
          "indexed": false,
          "internalType": "string",
          "name": "modelUri",
          "type": "string"
        },
        {
          "indexed": false,
          "internalType": "string",
          "name": "title",
          "type": "string"
        },
        {
          "indexed": false,
          "internalType": "string",
          "name": "lat",
          "type": "string"
        },
        {
          "indexed": false,
          "internalType": "string",
          "name": "long",
          "type": "string"
        },
        {
          "indexed": false,
          "internalType": "string",
          "name": "description",
          "type": "string"
        }
      ],
      "name": "MarketItemCreated",
      "type": "event"
    },
    {
      "inputs": [
        {
          "internalType": "address",
          "name": "nftContract",
          "type": "address"
        },
        {
          "internalType": "uint256",
          "name": "tokenId",
          "type": "uint256"
        },
        {
          "internalType": "uint256",
          "name": "price",
          "type": "uint256"
        },
        {
          "internalType": "string",
          "name": "modelUri",
          "type": "string"
        },
        {
          "internalType": "string",
          "name": "title",
          "type": "string"
        },
        {
          "internalType": "string",
          "name": "lat",
          "type": "string"
        },
        {
          "internalType": "string",
          "name": "long",
          "type": "string"
        },
        {
          "internalType": "string",
          "name": "description",
          "type": "string"
        }
      ],
      "name": "createMarketItem",
      "outputs": [],
      "stateMutability": "payable",
      "type": "function"
    },
    {
      "inputs": [
        {
          "internalType": "address",
          "name": "nftContract",
          "type": "address"
        },
        {
          "internalType": "uint256",
          "name": "itemId",
          "type": "uint256"
        }
      ],
      "name": "createMarketSale",
      "outputs": [],
      "stateMutability": "payable",
      "type": "function"
    },
    {
      "inputs": [],
      "name": "fetchAllNFTs",
      "outputs": [
        {
          "components": [
            {
              "internalType": "uint256",
              "name": "itemId",
              "type": "uint256"
            },
            {
              "internalType": "address",
              "name": "nftContract",
              "type": "address"
            },
            {
              "internalType": "uint256",
              "name": "tokenId",
              "type": "uint256"
            },
            {
              "internalType": "address payable",
              "name": "seller",
              "type": "address"
            },
            {
              "internalType": "address payable",
              "name": "owner",
              "type": "address"
            },
            {
              "internalType": "uint256",
              "name": "price",
              "type": "uint256"
            },
            {
              "internalType": "bool",
              "name": "sold",
              "type": "bool"
            },
            {
              "internalType": "string",
              "name": "modelUri",
              "type": "string"
            },
            {
              "internalType": "string",
              "name": "title",
              "type": "string"
            },
            {
              "internalType": "string",
              "name": "lat",
              "type": "string"
            },
            {
              "internalType": "string",
              "name": "long",
              "type": "string"
            },
            {
              "internalType": "string",
              "name": "description",
              "type": "string"
            }
          ],
          "internalType": "struct NFTMarket.MarketItem[]",
          "name": "",
          "type": "tuple[]"
        }
      ],
      "stateMutability": "view",
      "type": "function"
    },
    {
      "inputs": [],
      "name": "fetchItemsCreated",
      "outputs": [
        {
          "components": [
            {
              "internalType": "uint256",
              "name": "itemId",
              "type": "uint256"
            },
            {
              "internalType": "address",
              "name": "nftContract",
              "type": "address"
            },
            {
              "internalType": "uint256",
              "name": "tokenId",
              "type": "uint256"
            },
            {
              "internalType": "address payable",
              "name": "seller",
              "type": "address"
            },
            {
              "internalType": "address payable",
              "name": "owner",
              "type": "address"
            },
            {
              "internalType": "uint256",
              "name": "price",
              "type": "uint256"
            },
            {
              "internalType": "bool",
              "name": "sold",
              "type": "bool"
            },
            {
              "internalType": "string",
              "name": "modelUri",
              "type": "string"
            },
            {
              "internalType": "string",
              "name": "title",
              "type": "string"
            },
            {
              "internalType": "string",
              "name": "lat",
              "type": "string"
            },
            {
              "internalType": "string",
              "name": "long",
              "type": "string"
            },
            {
              "internalType": "string",
              "name": "description",
              "type": "string"
            }
          ],
          "internalType": "struct NFTMarket.MarketItem[]",
          "name": "",
          "type": "tuple[]"
        }
      ],
      "stateMutability": "view",
      "type": "function"
    },
    {
      "inputs": [],
      "name": "fetchMarketItems",
      "outputs": [
        {
          "components": [
            {
              "internalType": "uint256",
              "name": "itemId",
              "type": "uint256"
            },
            {
              "internalType": "address",
              "name": "nftContract",
              "type": "address"
            },
            {
              "internalType": "uint256",
              "name": "tokenId",
              "type": "uint256"
            },
            {
              "internalType": "address payable",
              "name": "seller",
              "type": "address"
            },
            {
              "internalType": "address payable",
              "name": "owner",
              "type": "address"
            },
            {
              "internalType": "uint256",
              "name": "price",
              "type": "uint256"
            },
            {
              "internalType": "bool",
              "name": "sold",
              "type": "bool"
            },
            {
              "internalType": "string",
              "name": "modelUri",
              "type": "string"
            },
            {
              "internalType": "string",
              "name": "title",
              "type": "string"
            },
            {
              "internalType": "string",
              "name": "lat",
              "type": "string"
            },
            {
              "internalType": "string",
              "name": "long",
              "type": "string"
            },
            {
              "internalType": "string",
              "name": "description",
              "type": "string"
            }
          ],
          "internalType": "struct NFTMarket.MarketItem[]",
          "name": "",
          "type": "tuple[]"
        }
      ],
      "stateMutability": "view",
      "type": "function"
    },
    {
      "inputs": [],
      "name": "fetchMyNFTs",
      "outputs": [
        {
          "components": [
            {
              "internalType": "uint256",
              "name": "itemId",
              "type": "uint256"
            },
            {
              "internalType": "address",
              "name": "nftContract",
              "type": "address"
            },
            {
              "internalType": "uint256",
              "name": "tokenId",
              "type": "uint256"
            },
            {
              "internalType": "address payable",
              "name": "seller",
              "type": "address"
            },
            {
              "internalType": "address payable",
              "name": "owner",
              "type": "address"
            },
            {
              "internalType": "uint256",
              "name": "price",
              "type": "uint256"
            },
            {
              "internalType": "bool",
              "name": "sold",
              "type": "bool"
            },
            {
              "internalType": "string",
              "name": "modelUri",
              "type": "string"
            },
            {
              "internalType": "string",
              "name": "title",
              "type": "string"
            },
            {
              "internalType": "string",
              "name": "lat",
              "type": "string"
            },
            {
              "internalType": "string",
              "name": "long",
              "type": "string"
            },
            {
              "internalType": "string",
              "name": "description",
              "type": "string"
            }
          ],
          "internalType": "struct NFTMarket.MarketItem[]",
          "name": "",
          "type": "tuple[]"
        }
      ],
      "stateMutability": "view",
      "type": "function"
    },
    {
      "inputs": [],
      "name": "getListingPrice",
      "outputs": [
        {
          "internalType": "uint256",
          "name": "",
          "type": "uint256"
        }
      ],
      "stateMutability": "view",
      "type": "function"
    }
  ],
  "bytecode": "0x608060405266038d7ea4c6800060045534801561001b57600080fd5b50600160008190555033600360006101000a81548173ffffffffffffffffffffffffffffffffffffffff021916908373ffffffffffffffffffffffffffffffffffffffff160217905550612d76806100746000396000f3fe6080604052600436106100705760003560e01c80633f0e317b1161004e5780633f0e317b146100f6578063b9cd57a314610121578063c23b139e1461013d578063f064c32e1461015957610070565b80630f08efe01461007557806312e85585146100a0578063202e3740146100cb575b600080fd5b34801561008157600080fd5b5061008a610184565b604051610097919061292f565b60405180910390f35b3480156100ac57600080fd5b506100b561078a565b6040516100c291906129f1565b60405180910390f35b3480156100d757600080fd5b506100e0610794565b6040516100ed919061292f565b60405180910390f35b34801561010257600080fd5b5061010b610e1e565b604051610118919061292f565b60405180910390f35b61013b60048036038101906101369190612334565b611379565b005b610157600480360381019061015291906122f8565b6117a0565b005b34801561016557600080fd5b5061016e611a70565b60405161017b919061292f565b60405180910390f35b6060600061019260016120fa565b905060006101a060026120fa565b6101aa60016120fa565b6101b49190612b29565b90506000808267ffffffffffffffff8111156101f9577f4e487b7100000000000000000000000000000000000000000000000000000000600052604160045260246000fd5b60405190808252806020026020018201604052801561023257816020015b61021f61211e565b8152602001906001900390816102175790505b50905060005b8481101561077f57600073ffffffffffffffffffffffffffffffffffffffff16600560006001846102699190612ad3565b815260200190815260200160002060040160009054906101000a900473ffffffffffffffffffffffffffffffffffffffff1673ffffffffffffffffffffffffffffffffffffffff16141561076c576000600560006001846102ca9190612ad3565b815260200190815260200160002060000154905060006005600083815260200190815260200160002090508060405180610180016040529081600082015481526020016001820160009054906101000a900473ffffffffffffffffffffffffffffffffffffffff1673ffffffffffffffffffffffffffffffffffffffff1673ffffffffffffffffffffffffffffffffffffffff168152602001600282015481526020016003820160009054906101000a900473ffffffffffffffffffffffffffffffffffffffff1673ffffffffffffffffffffffffffffffffffffffff1673ffffffffffffffffffffffffffffffffffffffff1681526020016004820160009054906101000a900473ffffffffffffffffffffffffffffffffffffffff1673ffffffffffffffffffffffffffffffffffffffff1673ffffffffffffffffffffffffffffffffffffffff168152602001600582015481526020016006820160009054906101000a900460ff1615151515815260200160078201805461044d90612bf9565b80601f016020809104026020016040519081016040528092919081815260200182805461047990612bf9565b80156104c65780601f1061049b576101008083540402835291602001916104c6565b820191906000526020600020905b8154815290600101906020018083116104a957829003601f168201915b505050505081526020016008820180546104df90612bf9565b80601f016020809104026020016040519081016040528092919081815260200182805461050b90612bf9565b80156105585780601f1061052d57610100808354040283529160200191610558565b820191906000526020600020905b81548152906001019060200180831161053b57829003601f168201915b5050505050815260200160098201805461057190612bf9565b80601f016020809104026020016040519081016040528092919081815260200182805461059d90612bf9565b80156105ea5780601f106105bf576101008083540402835291602001916105ea565b820191906000526020600020905b8154815290600101906020018083116105cd57829003601f168201915b50505050508152602001600a8201805461060390612bf9565b80601f016020809104026020016040519081016040528092919081815260200182805461062f90612bf9565b801561067c5780601f106106515761010080835404028352916020019161067c565b820191906000526020600020905b81548152906001019060200180831161065f57829003601f168201915b50505050508152602001600b8201805461069590612bf9565b80601f01602080910402602001604051908101604052809291908181526020018280546106c190612bf9565b801561070e5780601f106106e35761010080835404028352916020019161070e565b820191906000526020600020905b8154815290600101906020018083116106f157829003601f168201915b505050505081525050848681518110610750577f4e487b7100000000000000000000000000000000000000000000000000000000600052603260045260246000fd5b6020026020010181905250848061076690612c2b565b95505050505b808061077790612c2b565b915050610238565b508094505050505090565b6000600454905090565b606060006107a260016120fa565b905060008060005b8381101561084b573373ffffffffffffffffffffffffffffffffffffffff16600560006001846107da9190612ad3565b815260200190815260200160002060040160009054906101000a900473ffffffffffffffffffffffffffffffffffffffff1673ffffffffffffffffffffffffffffffffffffffff161415610838576001836108359190612ad3565b92505b808061084390612c2b565b9150506107aa565b5060008267ffffffffffffffff81111561088e577f4e487b7100000000000000000000000000000000000000000000000000000000600052604160045260246000fd5b6040519080825280602002602001820160405280156108c757816020015b6108b461211e565b8152602001906001900390816108ac5790505b50905060005b84811015610e13573373ffffffffffffffffffffffffffffffffffffffff16600560006001846108fd9190612ad3565b815260200190815260200160002060040160009054906101000a900473ffffffffffffffffffffffffffffffffffffffff1673ffffffffffffffffffffffffffffffffffffffff161415610e005760006005600060018461095e9190612ad3565b815260200190815260200160002060000154905060006005600083815260200190815260200160002090508060405180610180016040529081600082015481526020016001820160009054906101000a900473ffffffffffffffffffffffffffffffffffffffff1673ffffffffffffffffffffffffffffffffffffffff1673ffffffffffffffffffffffffffffffffffffffff168152602001600282015481526020016003820160009054906101000a900473ffffffffffffffffffffffffffffffffffffffff1673ffffffffffffffffffffffffffffffffffffffff1673ffffffffffffffffffffffffffffffffffffffff1681526020016004820160009054906101000a900473ffffffffffffffffffffffffffffffffffffffff1673ffffffffffffffffffffffffffffffffffffffff1673ffffffffffffffffffffffffffffffffffffffff168152602001600582015481526020016006820160009054906101000a900460ff16151515158152602001600782018054610ae190612bf9565b80601f0160208091040260200160405190810160405280929190818152602001828054610b0d90612bf9565b8015610b5a5780601f10610b2f57610100808354040283529160200191610b5a565b820191906000526020600020905b815481529060010190602001808311610b3d57829003601f168201915b50505050508152602001600882018054610b7390612bf9565b80601f0160208091040260200160405190810160405280929190818152602001828054610b9f90612bf9565b8015610bec5780601f10610bc157610100808354040283529160200191610bec565b820191906000526020600020905b815481529060010190602001808311610bcf57829003601f168201915b50505050508152602001600982018054610c0590612bf9565b80601f0160208091040260200160405190810160405280929190818152602001828054610c3190612bf9565b8015610c7e5780601f10610c5357610100808354040283529160200191610c7e565b820191906000526020600020905b815481529060010190602001808311610c6157829003601f168201915b50505050508152602001600a82018054610c9790612bf9565b80601f0160208091040260200160405190810160405280929190818152602001828054610cc390612bf9565b8015610d105780601f10610ce557610100808354040283529160200191610d10565b820191906000526020600020905b815481529060010190602001808311610cf357829003601f168201915b50505050508152602001600b82018054610d2990612bf9565b80601f0160208091040260200160405190810160405280929190818152602001828054610d5590612bf9565b8015610da25780601f10610d7757610100808354040283529160200191610da2565b820191906000526020600020905b815481529060010190602001808311610d8557829003601f168201915b505050505081525050848681518110610de4577f4e487b7100000000000000000000000000000000000000000000000000000000600052603260045260246000fd5b60200260200101819052508480610dfa90612c2b565b95505050505b8080610e0b90612c2b565b9150506108cd565b508094505050505090565b60606000610e2c60016120fa565b905060008167ffffffffffffffff811115610e70577f4e487b7100000000000000000000000000000000000000000000000000000000600052604160045260246000fd5b604051908082528060200260200182016040528015610ea957816020015b610e9661211e565b815260200190600190039081610e8e5790505b50905060005b8281101561137057600060056000600184610eca9190612ad3565b815260200190815260200160002060000154905060006005600083815260200190815260200160002090508060405180610180016040529081600082015481526020016001820160009054906101000a900473ffffffffffffffffffffffffffffffffffffffff1673ffffffffffffffffffffffffffffffffffffffff1673ffffffffffffffffffffffffffffffffffffffff168152602001600282015481526020016003820160009054906101000a900473ffffffffffffffffffffffffffffffffffffffff1673ffffffffffffffffffffffffffffffffffffffff1673ffffffffffffffffffffffffffffffffffffffff1681526020016004820160009054906101000a900473ffffffffffffffffffffffffffffffffffffffff1673ffffffffffffffffffffffffffffffffffffffff1673ffffffffffffffffffffffffffffffffffffffff168152602001600582015481526020016006820160009054906101000a900460ff1615151515815260200160078201805461104d90612bf9565b80601f016020809104026020016040519081016040528092919081815260200182805461107990612bf9565b80156110c65780601f1061109b576101008083540402835291602001916110c6565b820191906000526020600020905b8154815290600101906020018083116110a957829003601f168201915b505050505081526020016008820180546110df90612bf9565b80601f016020809104026020016040519081016040528092919081815260200182805461110b90612bf9565b80156111585780601f1061112d57610100808354040283529160200191611158565b820191906000526020600020905b81548152906001019060200180831161113b57829003601f168201915b5050505050815260200160098201805461117190612bf9565b80601f016020809104026020016040519081016040528092919081815260200182805461119d90612bf9565b80156111ea5780601f106111bf576101008083540402835291602001916111ea565b820191906000526020600020905b8154815290600101906020018083116111cd57829003601f168201915b50505050508152602001600a8201805461120390612bf9565b80601f016020809104026020016040519081016040528092919081815260200182805461122f90612bf9565b801561127c5780601f106112515761010080835404028352916020019161127c565b820191906000526020600020905b81548152906001019060200180831161125f57829003601f168201915b50505050508152602001600b8201805461129590612bf9565b80601f01602080910402602001604051908101604052809291908181526020018280546112c190612bf9565b801561130e5780601f106112e35761010080835404028352916020019161130e565b820191906000526020600020905b8154815290600101906020018083116112f157829003601f168201915b505050505081525050848481518110611350577f4e487b7100000000000000000000000000000000000000000000000000000000600052603260045260246000fd5b60200260200101819052505050808061136890612c2b565b915050610eaf565b50809250505090565b600260005414156113bf576040517f08c379a00000000000000000000000000000000000000000000000000000000081526004016113b6906129b1565b60405180910390fd5b60026000819055506000861161140a576040517f08c379a000000000000000000000000000000000000000000000000000000000815260040161140190612971565b60405180910390fd5b600454341461144e576040517f08c379a000000000000000000000000000000000000000000000000000000000815260040161144590612991565b60405180910390fd5b6114586001612108565b600061146460016120fa565b90506040518061018001604052808281526020018a73ffffffffffffffffffffffffffffffffffffffff1681526020018981526020013373ffffffffffffffffffffffffffffffffffffffff168152602001600073ffffffffffffffffffffffffffffffffffffffff16815260200188815260200160001515815260200187815260200186815260200185815260200184815260200183815250600560008381526020019081526020016000206000820151816000015560208201518160010160006101000a81548173ffffffffffffffffffffffffffffffffffffffff021916908373ffffffffffffffffffffffffffffffffffffffff1602179055506040820151816002015560608201518160030160006101000a81548173ffffffffffffffffffffffffffffffffffffffff021916908373ffffffffffffffffffffffffffffffffffffffff16021790555060808201518160040160006101000a81548173ffffffffffffffffffffffffffffffffffffffff021916908373ffffffffffffffffffffffffffffffffffffffff16021790555060a0820151816005015560c08201518160060160006101000a81548160ff02191690831515021790555060e08201518160070190805190602001906116409291906121c3565b5061010082015181600801908051906020019061165e9291906121c3565b5061012082015181600901908051906020019061167c9291906121c3565b5061014082015181600a01908051906020019061169a9291906121c3565b5061016082015181600b0190805190602001906116b89291906121c3565b509050508873ffffffffffffffffffffffffffffffffffffffff166323b872dd33308b6040518463ffffffff1660e01b81526004016116f993929190612848565b600060405180830381600087803b15801561171357600080fd5b505af1158015611727573d6000803e3d6000fd5b50505050878973ffffffffffffffffffffffffffffffffffffffff16827f694fb332998964e9caecced382ce37b5979803ccff428863eec7cd4df5c890ed3360008c60008d8d8d8d8d6040516117859998979695949392919061287f565b60405180910390a45060016000819055505050505050505050565b600260005414156117e6576040517f08c379a00000000000000000000000000000000000000000000000000000000081526004016117dd906129b1565b60405180910390fd5b600260008190555060006005600083815260200190815260200160002060050154905060006005600084815260200190815260200160002060020154905060006005600085815260200190815260200160002060060160009054906101000a900460ff169050823373ffffffffffffffffffffffffffffffffffffffff163110156118a6576040517f08c379a000000000000000000000000000000000000000000000000000000000815260040161189d906129d1565b60405180910390fd5b80156118e7576040517f08c379a00000000000000000000000000000000000000000000000000000000081526004016118de90612951565b60405180910390fd5b6005600085815260200190815260200160002060030160009054906101000a900473ffffffffffffffffffffffffffffffffffffffff1673ffffffffffffffffffffffffffffffffffffffff166108fc849081150290604051600060405180830381858888f19350505050158015611963573d6000803e3d6000fd5b508473ffffffffffffffffffffffffffffffffffffffff166323b872dd3033856040518463ffffffff1660e01b81526004016119a193929190612848565b600060405180830381600087803b1580156119bb57600080fd5b505af11580156119cf573d6000803e3d6000fd5b50505050336005600086815260200190815260200160002060040160006101000a81548173ffffffffffffffffffffffffffffffffffffffff021916908373ffffffffffffffffffffffffffffffffffffffff16021790555060016005600086815260200190815260200160002060060160006101000a81548160ff021916908315150217905550611a616002612108565b50505060016000819055505050565b60606000611a7e60016120fa565b905060008060005b83811015611b27573373ffffffffffffffffffffffffffffffffffffffff1660056000600184611ab69190612ad3565b815260200190815260200160002060030160009054906101000a900473ffffffffffffffffffffffffffffffffffffffff1673ffffffffffffffffffffffffffffffffffffffff161415611b1457600183611b119190612ad3565b92505b8080611b1f90612c2b565b915050611a86565b5060008267ffffffffffffffff811115611b6a577f4e487b7100000000000000000000000000000000000000000000000000000000600052604160045260246000fd5b604051908082528060200260200182016040528015611ba357816020015b611b9061211e565b815260200190600190039081611b885790505b50905060005b848110156120ef573373ffffffffffffffffffffffffffffffffffffffff1660056000600184611bd99190612ad3565b815260200190815260200160002060030160009054906101000a900473ffffffffffffffffffffffffffffffffffffffff1673ffffffffffffffffffffffffffffffffffffffff1614156120dc57600060056000600184611c3a9190612ad3565b815260200190815260200160002060000154905060006005600083815260200190815260200160002090508060405180610180016040529081600082015481526020016001820160009054906101000a900473ffffffffffffffffffffffffffffffffffffffff1673ffffffffffffffffffffffffffffffffffffffff1673ffffffffffffffffffffffffffffffffffffffff168152602001600282015481526020016003820160009054906101000a900473ffffffffffffffffffffffffffffffffffffffff1673ffffffffffffffffffffffffffffffffffffffff1673ffffffffffffffffffffffffffffffffffffffff1681526020016004820160009054906101000a900473ffffffffffffffffffffffffffffffffffffffff1673ffffffffffffffffffffffffffffffffffffffff1673ffffffffffffffffffffffffffffffffffffffff168152602001600582015481526020016006820160009054906101000a900460ff16151515158152602001600782018054611dbd90612bf9565b80601f0160208091040260200160405190810160405280929190818152602001828054611de990612bf9565b8015611e365780601f10611e0b57610100808354040283529160200191611e36565b820191906000526020600020905b815481529060010190602001808311611e1957829003601f168201915b50505050508152602001600882018054611e4f90612bf9565b80601f0160208091040260200160405190810160405280929190818152602001828054611e7b90612bf9565b8015611ec85780601f10611e9d57610100808354040283529160200191611ec8565b820191906000526020600020905b815481529060010190602001808311611eab57829003601f168201915b50505050508152602001600982018054611ee190612bf9565b80601f0160208091040260200160405190810160405280929190818152602001828054611f0d90612bf9565b8015611f5a5780601f10611f2f57610100808354040283529160200191611f5a565b820191906000526020600020905b815481529060010190602001808311611f3d57829003601f168201915b50505050508152602001600a82018054611f7390612bf9565b80601f0160208091040260200160405190810160405280929190818152602001828054611f9f90612bf9565b8015611fec5780601f10611fc157610100808354040283529160200191611fec565b820191906000526020600020905b815481529060010190602001808311611fcf57829003601f168201915b50505050508152602001600b8201805461200590612bf9565b80601f016020809104026020016040519081016040528092919081815260200182805461203190612bf9565b801561207e5780601f106120535761010080835404028352916020019161207e565b820191906000526020600020905b81548152906001019060200180831161206157829003601f168201915b5050505050815250508486815181106120c0577f4e487b7100000000000000000000000000000000000000000000000000000000600052603260045260246000fd5b602002602001018190525084806120d690612c2b565b95505050505b80806120e790612c2b565b915050611ba9565b508094505050505090565b600081600001549050919050565b6001816000016000828254019250508190555050565b60405180610180016040528060008152602001600073ffffffffffffffffffffffffffffffffffffffff16815260200160008152602001600073ffffffffffffffffffffffffffffffffffffffff168152602001600073ffffffffffffffffffffffffffffffffffffffff1681526020016000815260200160001515815260200160608152602001606081526020016060815260200160608152602001606081525090565b8280546121cf90612bf9565b90600052602060002090601f0160209004810192826121f15760008555612238565b82601f1061220a57805160ff1916838001178555612238565b82800160010185558215612238579182015b8281111561223757825182559160200191906001019061221c565b5b5090506122459190612249565b5090565b5b8082111561226257600081600090555060010161224a565b5090565b600061227961227484612a3d565b612a0c565b90508281526020810184848401111561229157600080fd5b61229c848285612bb7565b509392505050565b6000813590506122b381612d12565b92915050565b600082601f8301126122ca57600080fd5b81356122da848260208601612266565b91505092915050565b6000813590506122f281612d29565b92915050565b6000806040838503121561230b57600080fd5b6000612319858286016122a4565b925050602061232a858286016122e3565b9150509250929050565b600080600080600080600080610100898b03121561235157600080fd5b600061235f8b828c016122a4565b98505060206123708b828c016122e3565b97505060406123818b828c016122e3565b965050606089013567ffffffffffffffff81111561239e57600080fd5b6123aa8b828c016122b9565b955050608089013567ffffffffffffffff8111156123c757600080fd5b6123d38b828c016122b9565b94505060a089013567ffffffffffffffff8111156123f057600080fd5b6123fc8b828c016122b9565b93505060c089013567ffffffffffffffff81111561241957600080fd5b6124258b828c016122b9565b92505060e089013567ffffffffffffffff81111561244257600080fd5b61244e8b828c016122b9565b9150509295985092959890939650565b600061246a838361270a565b905092915050565b61247b81612b6f565b82525050565b61248a81612b5d565b82525050565b61249981612b5d565b82525050565b60006124aa82612a7d565b6124b48185612aa0565b9350836020820285016124c685612a6d565b8060005b8581101561250257848403895281516124e3858261245e565b94506124ee83612a93565b925060208a019950506001810190506124ca565b50829750879550505050505092915050565b61251d81612b81565b82525050565b61252c81612b81565b82525050565b600061253d82612a88565b6125478185612ab1565b9350612557818560208601612bc6565b61256081612d01565b840191505092915050565b600061257682612a88565b6125808185612ac2565b9350612590818560208601612bc6565b61259981612d01565b840191505092915050565b60006125b1601b83612ac2565b91507f54686973206974656d2077617320616c726561647920736f6c642e00000000006000830152602082019050919050565b60006125f1601483612ac2565b91507f5072696365206d7573742062652076616c69642e0000000000000000000000006000830152602082019050919050565b6000612631602983612ac2565b91507f5072696365206d75737420626520657175616c20746f20746865206c6973746960008301527f6e672070726963652e00000000000000000000000000000000000000000000006020830152604082019050919050565b6000612697601f83612ac2565b91507f5265656e7472616e637947756172643a207265656e7472616e742063616c6c006000830152602082019050919050565b60006126d7601383612ac2565b91507f496e73756666696369656e742066756e64732e000000000000000000000000006000830152602082019050919050565b600061018083016000830151612723600086018261282a565b5060208301516127366020860182612481565b506040830151612749604086018261282a565b50606083015161275c6060860182612472565b50608083015161276f6080860182612472565b5060a083015161278260a086018261282a565b5060c083015161279560c0860182612514565b5060e083015184820360e08601526127ad8282612532565b9150506101008301518482036101008601526127c98282612532565b9150506101208301518482036101208601526127e58282612532565b9150506101408301518482036101408601526128018282612532565b91505061016083015184820361016086015261281d8282612532565b9150508091505092915050565b61283381612bad565b82525050565b61284281612bad565b82525050565b600060608201905061285d6000830186612490565b61286a6020830185612490565b6128776040830184612839565b949350505050565b600061012082019050612895600083018c612490565b6128a2602083018b612490565b6128af604083018a612839565b6128bc6060830189612523565b81810360808301526128ce818861256b565b905081810360a08301526128e2818761256b565b905081810360c08301526128f6818661256b565b905081810360e083015261290a818561256b565b905081810361010083015261291f818461256b565b90509a9950505050505050505050565b60006020820190508181036000830152612949818461249f565b905092915050565b6000602082019050818103600083015261296a816125a4565b9050919050565b6000602082019050818103600083015261298a816125e4565b9050919050565b600060208201905081810360008301526129aa81612624565b9050919050565b600060208201905081810360008301526129ca8161268a565b9050919050565b600060208201905081810360008301526129ea816126ca565b9050919050565b6000602082019050612a066000830184612839565b92915050565b6000604051905081810181811067ffffffffffffffff82111715612a3357612a32612cd2565b5b8060405250919050565b600067ffffffffffffffff821115612a5857612a57612cd2565b5b601f19601f8301169050602081019050919050565b6000819050602082019050919050565b600081519050919050565b600081519050919050565b6000602082019050919050565b600082825260208201905092915050565b600082825260208201905092915050565b600082825260208201905092915050565b6000612ade82612bad565b9150612ae983612bad565b9250827fffffffffffffffffffffffffffffffffffffffffffffffffffffffffffffffff03821115612b1e57612b1d612c74565b5b828201905092915050565b6000612b3482612bad565b9150612b3f83612bad565b925082821015612b5257612b51612c74565b5b828203905092915050565b6000612b6882612b8d565b9050919050565b6000612b7a82612b8d565b9050919050565b60008115159050919050565b600073ffffffffffffffffffffffffffffffffffffffff82169050919050565b6000819050919050565b82818337600083830152505050565b60005b83811015612be4578082015181840152602081019050612bc9565b83811115612bf3576000848401525b50505050565b60006002820490506001821680612c1157607f821691505b60208210811415612c2557612c24612ca3565b5b50919050565b6000612c3682612bad565b91507fffffffffffffffffffffffffffffffffffffffffffffffffffffffffffffffff821415612c6957612c68612c74565b5b600182019050919050565b7f4e487b7100000000000000000000000000000000000000000000000000000000600052601160045260246000fd5b7f4e487b7100000000000000000000000000000000000000000000000000000000600052602260045260246000fd5b7f4e487b7100000000000000000000000000000000000000000000000000000000600052604160045260246000fd5b6000601f19601f8301169050919050565b612d1b81612b5d565b8114612d2657600080fd5b50565b612d3281612bad565b8114612d3d57600080fd5b5056fea2646970667358221220a003d31602f78f90bb105bd64ecc0009e7a1af55210407de0a251e7e402886a264736f6c63430008000033",
  "linkReferences": {},
  "deployedLinkReferences": {}
}