{
  "_format": "hh-sol-artifact-1",
  "contractName": "NFTMarket",
  "sourceName": "contracts/NFTMarket.sol",
  "abi": [
    {
      "inputs": [],
      "stateMutability": "nonpayable",
      "type": "constructor"
    },
    {
      "anonymous": false,
      "inputs": [
        {
          "indexed": true,
          "internalType": "uint256",
          "name": "itemId",
          "type": "uint256"
        },
        {
          "indexed": true,
          "internalType": "address",
          "name": "nftContract",
          "type": "address"
        },
        {
          "indexed": true,
          "internalType": "uint256",
          "name": "tokenId",
          "type": "uint256"
        },
        {
          "indexed": false,
          "internalType": "address",
          "name": "seller",
          "type": "address"
        },
        {
          "indexed": false,
          "internalType": "address",
          "name": "owner",
          "type": "address"
        },
        {
          "indexed": false,
          "internalType": "uint256",
          "name": "price",
          "type": "uint256"
        },
        {
          "indexed": false,
          "internalType": "bool",
          "name": "sold",
          "type": "bool"
        },
        {
          "indexed": false,
          "internalType": "string",
          "name": "modelUri",
          "type": "string"
        },
        {
          "indexed": false,
          "internalType": "string",
          "name": "previewUri",
          "type": "string"
        },
        {
          "indexed": false,
          "internalType": "string",
          "name": "title",
          "type": "string"
        },
        {
          "indexed": false,
          "internalType": "string",
          "name": "lat",
          "type": "string"
        },
        {
          "indexed": false,
          "internalType": "string",
          "name": "long",
          "type": "string"
        },
        {
          "indexed": false,
          "internalType": "string",
          "name": "description",
          "type": "string"
        }
      ],
      "name": "MarketItemCreated",
      "type": "event"
    },
    {
      "inputs": [
        {
          "internalType": "address",
          "name": "nftContract",
          "type": "address"
        },
        {
          "internalType": "uint256",
          "name": "tokenId",
          "type": "uint256"
        },
        {
          "internalType": "uint256",
          "name": "price",
          "type": "uint256"
        },
        {
          "internalType": "string",
          "name": "modelUri",
          "type": "string"
        },
        {
          "internalType": "string",
          "name": "previewUri",
          "type": "string"
        },
        {
          "internalType": "string",
          "name": "title",
          "type": "string"
        },
        {
          "internalType": "string",
          "name": "lat",
          "type": "string"
        },
        {
          "internalType": "string",
          "name": "long",
          "type": "string"
        },
        {
          "internalType": "string",
          "name": "description",
          "type": "string"
        }
      ],
      "name": "createMarketItem",
      "outputs": [],
      "stateMutability": "payable",
      "type": "function"
    },
    {
      "inputs": [
        {
          "internalType": "address",
          "name": "nftContract",
          "type": "address"
        },
        {
          "internalType": "uint256",
          "name": "itemId",
          "type": "uint256"
        }
      ],
      "name": "createMarketSale",
      "outputs": [],
      "stateMutability": "payable",
      "type": "function"
    },
    {
      "inputs": [],
      "name": "fetchAllNFTs",
      "outputs": [
        {
          "components": [
            {
              "internalType": "uint256",
              "name": "itemId",
              "type": "uint256"
            },
            {
              "internalType": "address",
              "name": "nftContract",
              "type": "address"
            },
            {
              "internalType": "uint256",
              "name": "tokenId",
              "type": "uint256"
            },
            {
              "internalType": "address payable",
              "name": "seller",
              "type": "address"
            },
            {
              "internalType": "address payable",
              "name": "owner",
              "type": "address"
            },
            {
              "internalType": "uint256",
              "name": "price",
              "type": "uint256"
            },
            {
              "internalType": "bool",
              "name": "sold",
              "type": "bool"
            },
            {
              "internalType": "string",
              "name": "modelUri",
              "type": "string"
            },
            {
              "internalType": "string",
              "name": "previewUri",
              "type": "string"
            },
            {
              "internalType": "string",
              "name": "title",
              "type": "string"
            },
            {
              "internalType": "string",
              "name": "lat",
              "type": "string"
            },
            {
              "internalType": "string",
              "name": "long",
              "type": "string"
            },
            {
              "internalType": "string",
              "name": "description",
              "type": "string"
            }
          ],
          "internalType": "struct NFTMarket.MarketItem[]",
          "name": "",
          "type": "tuple[]"
        }
      ],
      "stateMutability": "view",
      "type": "function"
    },
    {
      "inputs": [],
      "name": "fetchItemsCreated",
      "outputs": [
        {
          "components": [
            {
              "internalType": "uint256",
              "name": "itemId",
              "type": "uint256"
            },
            {
              "internalType": "address",
              "name": "nftContract",
              "type": "address"
            },
            {
              "internalType": "uint256",
              "name": "tokenId",
              "type": "uint256"
            },
            {
              "internalType": "address payable",
              "name": "seller",
              "type": "address"
            },
            {
              "internalType": "address payable",
              "name": "owner",
              "type": "address"
            },
            {
              "internalType": "uint256",
              "name": "price",
              "type": "uint256"
            },
            {
              "internalType": "bool",
              "name": "sold",
              "type": "bool"
            },
            {
              "internalType": "string",
              "name": "modelUri",
              "type": "string"
            },
            {
              "internalType": "string",
              "name": "previewUri",
              "type": "string"
            },
            {
              "internalType": "string",
              "name": "title",
              "type": "string"
            },
            {
              "internalType": "string",
              "name": "lat",
              "type": "string"
            },
            {
              "internalType": "string",
              "name": "long",
              "type": "string"
            },
            {
              "internalType": "string",
              "name": "description",
              "type": "string"
            }
          ],
          "internalType": "struct NFTMarket.MarketItem[]",
          "name": "",
          "type": "tuple[]"
        }
      ],
      "stateMutability": "view",
      "type": "function"
    },
    {
      "inputs": [],
      "name": "fetchMarketItems",
      "outputs": [
        {
          "components": [
            {
              "internalType": "uint256",
              "name": "itemId",
              "type": "uint256"
            },
            {
              "internalType": "address",
              "name": "nftContract",
              "type": "address"
            },
            {
              "internalType": "uint256",
              "name": "tokenId",
              "type": "uint256"
            },
            {
              "internalType": "address payable",
              "name": "seller",
              "type": "address"
            },
            {
              "internalType": "address payable",
              "name": "owner",
              "type": "address"
            },
            {
              "internalType": "uint256",
              "name": "price",
              "type": "uint256"
            },
            {
              "internalType": "bool",
              "name": "sold",
              "type": "bool"
            },
            {
              "internalType": "string",
              "name": "modelUri",
              "type": "string"
            },
            {
              "internalType": "string",
              "name": "previewUri",
              "type": "string"
            },
            {
              "internalType": "string",
              "name": "title",
              "type": "string"
            },
            {
              "internalType": "string",
              "name": "lat",
              "type": "string"
            },
            {
              "internalType": "string",
              "name": "long",
              "type": "string"
            },
            {
              "internalType": "string",
              "name": "description",
              "type": "string"
            }
          ],
          "internalType": "struct NFTMarket.MarketItem[]",
          "name": "",
          "type": "tuple[]"
        }
      ],
      "stateMutability": "view",
      "type": "function"
    },
    {
      "inputs": [],
      "name": "fetchMyNFTs",
      "outputs": [
        {
          "components": [
            {
              "internalType": "uint256",
              "name": "itemId",
              "type": "uint256"
            },
            {
              "internalType": "address",
              "name": "nftContract",
              "type": "address"
            },
            {
              "internalType": "uint256",
              "name": "tokenId",
              "type": "uint256"
            },
            {
              "internalType": "address payable",
              "name": "seller",
              "type": "address"
            },
            {
              "internalType": "address payable",
              "name": "owner",
              "type": "address"
            },
            {
              "internalType": "uint256",
              "name": "price",
              "type": "uint256"
            },
            {
              "internalType": "bool",
              "name": "sold",
              "type": "bool"
            },
            {
              "internalType": "string",
              "name": "modelUri",
              "type": "string"
            },
            {
              "internalType": "string",
              "name": "previewUri",
              "type": "string"
            },
            {
              "internalType": "string",
              "name": "title",
              "type": "string"
            },
            {
              "internalType": "string",
              "name": "lat",
              "type": "string"
            },
            {
              "internalType": "string",
              "name": "long",
              "type": "string"
            },
            {
              "internalType": "string",
              "name": "description",
              "type": "string"
            }
          ],
          "internalType": "struct NFTMarket.MarketItem[]",
          "name": "",
          "type": "tuple[]"
        }
      ],
      "stateMutability": "view",
      "type": "function"
    },
    {
      "inputs": [],
      "name": "getListingPrice",
      "outputs": [
        {
          "internalType": "uint256",
          "name": "",
          "type": "uint256"
        }
      ],
      "stateMutability": "view",
      "type": "function"
    }
  ],
  "bytecode": "0x608060405266038d7ea4c6800060045534801561001b57600080fd5b50600160008190555033600360006101000a81548173ffffffffffffffffffffffffffffffffffffffff021916908373ffffffffffffffffffffffffffffffffffffffff16021790555061304a806100746000396000f3fe6080604052600436106100705760003560e01c80633f0e317b1161004e5780633f0e317b146100f6578063c23b139e14610121578063cd964d791461013d578063f064c32e1461015957610070565b80630f08efe01461007557806312e85585146100a0578063202e3740146100cb575b600080fd5b34801561008157600080fd5b5061008a610184565b6040516100979190612c03565b60405180910390f35b3480156100ac57600080fd5b506100b561081c565b6040516100c29190612cc5565b60405180910390f35b3480156100d757600080fd5b506100e0610826565b6040516100ed9190612c03565b60405180910390f35b34801561010257600080fd5b5061010b610f42565b6040516101189190612c03565b60405180910390f35b61013b6004803603810190610136919061256e565b61152f565b005b610157600480360381019061015291906125aa565b6117ff565b005b34801561016557600080fd5b5061016e611c4d565b60405161017b9190612c03565b60405180910390f35b606060006101926001612369565b905060006101a06002612369565b6101aa6001612369565b6101b49190612dfd565b90506000808267ffffffffffffffff8111156101f9577f4e487b7100000000000000000000000000000000000000000000000000000000600052604160045260246000fd5b60405190808252806020026020018201604052801561023257816020015b61021f61238d565b8152602001906001900390816102175790505b50905060005b8481101561081157600073ffffffffffffffffffffffffffffffffffffffff16600560006001846102699190612da7565b815260200190815260200160002060040160009054906101000a900473ffffffffffffffffffffffffffffffffffffffff1673ffffffffffffffffffffffffffffffffffffffff1614156107fe576000600560006001846102ca9190612da7565b8152602001908152602001600020600001549050600060056000838152602001908152602001600020905080604051806101a0016040529081600082015481526020016001820160009054906101000a900473ffffffffffffffffffffffffffffffffffffffff1673ffffffffffffffffffffffffffffffffffffffff1673ffffffffffffffffffffffffffffffffffffffff168152602001600282015481526020016003820160009054906101000a900473ffffffffffffffffffffffffffffffffffffffff1673ffffffffffffffffffffffffffffffffffffffff1673ffffffffffffffffffffffffffffffffffffffff1681526020016004820160009054906101000a900473ffffffffffffffffffffffffffffffffffffffff1673ffffffffffffffffffffffffffffffffffffffff1673ffffffffffffffffffffffffffffffffffffffff168152602001600582015481526020016006820160009054906101000a900460ff1615151515815260200160078201805461044d90612ecd565b80601f016020809104026020016040519081016040528092919081815260200182805461047990612ecd565b80156104c65780601f1061049b576101008083540402835291602001916104c6565b820191906000526020600020905b8154815290600101906020018083116104a957829003601f168201915b505050505081526020016008820180546104df90612ecd565b80601f016020809104026020016040519081016040528092919081815260200182805461050b90612ecd565b80156105585780601f1061052d57610100808354040283529160200191610558565b820191906000526020600020905b81548152906001019060200180831161053b57829003601f168201915b5050505050815260200160098201805461057190612ecd565b80601f016020809104026020016040519081016040528092919081815260200182805461059d90612ecd565b80156105ea5780601f106105bf576101008083540402835291602001916105ea565b820191906000526020600020905b8154815290600101906020018083116105cd57829003601f168201915b50505050508152602001600a8201805461060390612ecd565b80601f016020809104026020016040519081016040528092919081815260200182805461062f90612ecd565b801561067c5780601f106106515761010080835404028352916020019161067c565b820191906000526020600020905b81548152906001019060200180831161065f57829003601f168201915b50505050508152602001600b8201805461069590612ecd565b80601f01602080910402602001604051908101604052809291908181526020018280546106c190612ecd565b801561070e5780601f106106e35761010080835404028352916020019161070e565b820191906000526020600020905b8154815290600101906020018083116106f157829003601f168201915b50505050508152602001600c8201805461072790612ecd565b80601f016020809104026020016040519081016040528092919081815260200182805461075390612ecd565b80156107a05780601f10610775576101008083540402835291602001916107a0565b820191906000526020600020905b81548152906001019060200180831161078357829003601f168201915b5050505050815250508486815181106107e2577f4e487b7100000000000000000000000000000000000000000000000000000000600052603260045260246000fd5b602002602001018190525084806107f890612eff565b95505050505b808061080990612eff565b915050610238565b508094505050505090565b6000600454905090565b606060006108346001612369565b905060008060005b838110156108dd573373ffffffffffffffffffffffffffffffffffffffff166005600060018461086c9190612da7565b815260200190815260200160002060040160009054906101000a900473ffffffffffffffffffffffffffffffffffffffff1673ffffffffffffffffffffffffffffffffffffffff1614156108ca576001836108c79190612da7565b92505b80806108d590612eff565b91505061083c565b5060008267ffffffffffffffff811115610920577f4e487b7100000000000000000000000000000000000000000000000000000000600052604160045260246000fd5b60405190808252806020026020018201604052801561095957816020015b61094661238d565b81526020019060019003908161093e5790505b50905060005b84811015610f37573373ffffffffffffffffffffffffffffffffffffffff166005600060018461098f9190612da7565b815260200190815260200160002060040160009054906101000a900473ffffffffffffffffffffffffffffffffffffffff1673ffffffffffffffffffffffffffffffffffffffff161415610f24576000600560006001846109f09190612da7565b8152602001908152602001600020600001549050600060056000838152602001908152602001600020905080604051806101a0016040529081600082015481526020016001820160009054906101000a900473ffffffffffffffffffffffffffffffffffffffff1673ffffffffffffffffffffffffffffffffffffffff1673ffffffffffffffffffffffffffffffffffffffff168152602001600282015481526020016003820160009054906101000a900473ffffffffffffffffffffffffffffffffffffffff1673ffffffffffffffffffffffffffffffffffffffff1673ffffffffffffffffffffffffffffffffffffffff1681526020016004820160009054906101000a900473ffffffffffffffffffffffffffffffffffffffff1673ffffffffffffffffffffffffffffffffffffffff1673ffffffffffffffffffffffffffffffffffffffff168152602001600582015481526020016006820160009054906101000a900460ff16151515158152602001600782018054610b7390612ecd565b80601f0160208091040260200160405190810160405280929190818152602001828054610b9f90612ecd565b8015610bec5780601f10610bc157610100808354040283529160200191610bec565b820191906000526020600020905b815481529060010190602001808311610bcf57829003601f168201915b50505050508152602001600882018054610c0590612ecd565b80601f0160208091040260200160405190810160405280929190818152602001828054610c3190612ecd565b8015610c7e5780601f10610c5357610100808354040283529160200191610c7e565b820191906000526020600020905b815481529060010190602001808311610c6157829003601f168201915b50505050508152602001600982018054610c9790612ecd565b80601f0160208091040260200160405190810160405280929190818152602001828054610cc390612ecd565b8015610d105780601f10610ce557610100808354040283529160200191610d10565b820191906000526020600020905b815481529060010190602001808311610cf357829003601f168201915b50505050508152602001600a82018054610d2990612ecd565b80601f0160208091040260200160405190810160405280929190818152602001828054610d5590612ecd565b8015610da25780601f10610d7757610100808354040283529160200191610da2565b820191906000526020600020905b815481529060010190602001808311610d8557829003601f168201915b50505050508152602001600b82018054610dbb90612ecd565b80601f0160208091040260200160405190810160405280929190818152602001828054610de790612ecd565b8015610e345780601f10610e0957610100808354040283529160200191610e34565b820191906000526020600020905b815481529060010190602001808311610e1757829003601f168201915b50505050508152602001600c82018054610e4d90612ecd565b80601f0160208091040260200160405190810160405280929190818152602001828054610e7990612ecd565b8015610ec65780601f10610e9b57610100808354040283529160200191610ec6565b820191906000526020600020905b815481529060010190602001808311610ea957829003601f168201915b505050505081525050848681518110610f08577f4e487b7100000000000000000000000000000000000000000000000000000000600052603260045260246000fd5b60200260200101819052508480610f1e90612eff565b95505050505b8080610f2f90612eff565b91505061095f565b508094505050505090565b60606000610f506001612369565b905060008167ffffffffffffffff811115610f94577f4e487b7100000000000000000000000000000000000000000000000000000000600052604160045260246000fd5b604051908082528060200260200182016040528015610fcd57816020015b610fba61238d565b815260200190600190039081610fb25790505b50905060005b8281101561152657600060056000600184610fee9190612da7565b8152602001908152602001600020600001549050600060056000838152602001908152602001600020905080604051806101a0016040529081600082015481526020016001820160009054906101000a900473ffffffffffffffffffffffffffffffffffffffff1673ffffffffffffffffffffffffffffffffffffffff1673ffffffffffffffffffffffffffffffffffffffff168152602001600282015481526020016003820160009054906101000a900473ffffffffffffffffffffffffffffffffffffffff1673ffffffffffffffffffffffffffffffffffffffff1673ffffffffffffffffffffffffffffffffffffffff1681526020016004820160009054906101000a900473ffffffffffffffffffffffffffffffffffffffff1673ffffffffffffffffffffffffffffffffffffffff1673ffffffffffffffffffffffffffffffffffffffff168152602001600582015481526020016006820160009054906101000a900460ff1615151515815260200160078201805461117190612ecd565b80601f016020809104026020016040519081016040528092919081815260200182805461119d90612ecd565b80156111ea5780601f106111bf576101008083540402835291602001916111ea565b820191906000526020600020905b8154815290600101906020018083116111cd57829003601f168201915b5050505050815260200160088201805461120390612ecd565b80601f016020809104026020016040519081016040528092919081815260200182805461122f90612ecd565b801561127c5780601f106112515761010080835404028352916020019161127c565b820191906000526020600020905b81548152906001019060200180831161125f57829003601f168201915b5050505050815260200160098201805461129590612ecd565b80601f01602080910402602001604051908101604052809291908181526020018280546112c190612ecd565b801561130e5780601f106112e35761010080835404028352916020019161130e565b820191906000526020600020905b8154815290600101906020018083116112f157829003601f168201915b50505050508152602001600a8201805461132790612ecd565b80601f016020809104026020016040519081016040528092919081815260200182805461135390612ecd565b80156113a05780601f10611375576101008083540402835291602001916113a0565b820191906000526020600020905b81548152906001019060200180831161138357829003601f168201915b50505050508152602001600b820180546113b990612ecd565b80601f01602080910402602001604051908101604052809291908181526020018280546113e590612ecd565b80156114325780601f1061140757610100808354040283529160200191611432565b820191906000526020600020905b81548152906001019060200180831161141557829003601f168201915b50505050508152602001600c8201805461144b90612ecd565b80601f016020809104026020016040519081016040528092919081815260200182805461147790612ecd565b80156114c45780601f10611499576101008083540402835291602001916114c4565b820191906000526020600020905b8154815290600101906020018083116114a757829003601f168201915b505050505081525050848481518110611506577f4e487b7100000000000000000000000000000000000000000000000000000000600052603260045260246000fd5b60200260200101819052505050808061151e90612eff565b915050610fd3565b50809250505090565b60026000541415611575576040517f08c379a000000000000000000000000000000000000000000000000000000000815260040161156c90612c85565b60405180910390fd5b600260008190555060006005600083815260200190815260200160002060050154905060006005600084815260200190815260200160002060020154905060006005600085815260200190815260200160002060060160009054906101000a900460ff169050823373ffffffffffffffffffffffffffffffffffffffff16311015611635576040517f08c379a000000000000000000000000000000000000000000000000000000000815260040161162c90612ca5565b60405180910390fd5b8015611676576040517f08c379a000000000000000000000000000000000000000000000000000000000815260040161166d90612c25565b60405180910390fd5b6005600085815260200190815260200160002060030160009054906101000a900473ffffffffffffffffffffffffffffffffffffffff1673ffffffffffffffffffffffffffffffffffffffff166108fc849081150290604051600060405180830381858888f193505050501580156116f2573d6000803e3d6000fd5b508473ffffffffffffffffffffffffffffffffffffffff166323b872dd3033856040518463ffffffff1660e01b815260040161173093929190612b06565b600060405180830381600087803b15801561174a57600080fd5b505af115801561175e573d6000803e3d6000fd5b50505050336005600086815260200190815260200160002060040160006101000a81548173ffffffffffffffffffffffffffffffffffffffff021916908373ffffffffffffffffffffffffffffffffffffffff16021790555060016005600086815260200190815260200160002060060160006101000a81548160ff0219169083151502179055506117f06002612377565b50505060016000819055505050565b60026000541415611845576040517f08c379a000000000000000000000000000000000000000000000000000000000815260040161183c90612c85565b60405180910390fd5b600260008190555060008711611890576040517f08c379a000000000000000000000000000000000000000000000000000000000815260040161188790612c45565b60405180910390fd5b60045434146118d4576040517f08c379a00000000000000000000000000000000000000000000000000000000081526004016118cb90612c65565b60405180910390fd5b6118de6001612377565b60006118ea6001612369565b9050604051806101a001604052808281526020018b73ffffffffffffffffffffffffffffffffffffffff1681526020018a81526020013373ffffffffffffffffffffffffffffffffffffffff168152602001600073ffffffffffffffffffffffffffffffffffffffff16815260200189815260200160001515815260200188815260200187815260200186815260200185815260200184815260200183815250600560008381526020019081526020016000206000820151816000015560208201518160010160006101000a81548173ffffffffffffffffffffffffffffffffffffffff021916908373ffffffffffffffffffffffffffffffffffffffff1602179055506040820151816002015560608201518160030160006101000a81548173ffffffffffffffffffffffffffffffffffffffff021916908373ffffffffffffffffffffffffffffffffffffffff16021790555060808201518160040160006101000a81548173ffffffffffffffffffffffffffffffffffffffff021916908373ffffffffffffffffffffffffffffffffffffffff16021790555060a0820151816005015560c08201518160060160006101000a81548160ff02191690831515021790555060e0820151816007019080519060200190611acc929190612439565b50610100820151816008019080519060200190611aea929190612439565b50610120820151816009019080519060200190611b08929190612439565b5061014082015181600a019080519060200190611b26929190612439565b5061016082015181600b019080519060200190611b44929190612439565b5061018082015181600c019080519060200190611b62929190612439565b509050508973ffffffffffffffffffffffffffffffffffffffff166323b872dd33308c6040518463ffffffff1660e01b8152600401611ba393929190612b06565b600060405180830381600087803b158015611bbd57600080fd5b505af1158015611bd1573d6000803e3d6000fd5b50505050888a73ffffffffffffffffffffffffffffffffffffffff16827fd3cd1f676c5cf1c5ed746f6c3bc337525fdacaf4b25a62512e32dbaecc90594d3360008d60008e8e8e8e8e8e604051611c319a99989796959493929190612b3d565b60405180910390a4506001600081905550505050505050505050565b60606000611c5b6001612369565b905060008060005b83811015611d04573373ffffffffffffffffffffffffffffffffffffffff1660056000600184611c939190612da7565b815260200190815260200160002060030160009054906101000a900473ffffffffffffffffffffffffffffffffffffffff1673ffffffffffffffffffffffffffffffffffffffff161415611cf157600183611cee9190612da7565b92505b8080611cfc90612eff565b915050611c63565b5060008267ffffffffffffffff811115611d47577f4e487b7100000000000000000000000000000000000000000000000000000000600052604160045260246000fd5b604051908082528060200260200182016040528015611d8057816020015b611d6d61238d565b815260200190600190039081611d655790505b50905060005b8481101561235e573373ffffffffffffffffffffffffffffffffffffffff1660056000600184611db69190612da7565b815260200190815260200160002060030160009054906101000a900473ffffffffffffffffffffffffffffffffffffffff1673ffffffffffffffffffffffffffffffffffffffff16141561234b57600060056000600184611e179190612da7565b8152602001908152602001600020600001549050600060056000838152602001908152602001600020905080604051806101a0016040529081600082015481526020016001820160009054906101000a900473ffffffffffffffffffffffffffffffffffffffff1673ffffffffffffffffffffffffffffffffffffffff1673ffffffffffffffffffffffffffffffffffffffff168152602001600282015481526020016003820160009054906101000a900473ffffffffffffffffffffffffffffffffffffffff1673ffffffffffffffffffffffffffffffffffffffff1673ffffffffffffffffffffffffffffffffffffffff1681526020016004820160009054906101000a900473ffffffffffffffffffffffffffffffffffffffff1673ffffffffffffffffffffffffffffffffffffffff1673ffffffffffffffffffffffffffffffffffffffff168152602001600582015481526020016006820160009054906101000a900460ff16151515158152602001600782018054611f9a90612ecd565b80601f0160208091040260200160405190810160405280929190818152602001828054611fc690612ecd565b80156120135780601f10611fe857610100808354040283529160200191612013565b820191906000526020600020905b815481529060010190602001808311611ff657829003601f168201915b5050505050815260200160088201805461202c90612ecd565b80601f016020809104026020016040519081016040528092919081815260200182805461205890612ecd565b80156120a55780601f1061207a576101008083540402835291602001916120a5565b820191906000526020600020905b81548152906001019060200180831161208857829003601f168201915b505050505081526020016009820180546120be90612ecd565b80601f01602080910402602001604051908101604052809291908181526020018280546120ea90612ecd565b80156121375780601f1061210c57610100808354040283529160200191612137565b820191906000526020600020905b81548152906001019060200180831161211a57829003601f168201915b50505050508152602001600a8201805461215090612ecd565b80601f016020809104026020016040519081016040528092919081815260200182805461217c90612ecd565b80156121c95780601f1061219e576101008083540402835291602001916121c9565b820191906000526020600020905b8154815290600101906020018083116121ac57829003601f168201915b50505050508152602001600b820180546121e290612ecd565b80601f016020809104026020016040519081016040528092919081815260200182805461220e90612ecd565b801561225b5780601f106122305761010080835404028352916020019161225b565b820191906000526020600020905b81548152906001019060200180831161223e57829003601f168201915b50505050508152602001600c8201805461227490612ecd565b80601f01602080910402602001604051908101604052809291908181526020018280546122a090612ecd565b80156122ed5780601f106122c2576101008083540402835291602001916122ed565b820191906000526020600020905b8154815290600101906020018083116122d057829003601f168201915b50505050508152505084868151811061232f577f4e487b7100000000000000000000000000000000000000000000000000000000600052603260045260246000fd5b6020026020010181905250848061234590612eff565b95505050505b808061235690612eff565b915050611d86565b508094505050505090565b600081600001549050919050565b6001816000016000828254019250508190555050565b604051806101a0016040528060008152602001600073ffffffffffffffffffffffffffffffffffffffff16815260200160008152602001600073ffffffffffffffffffffffffffffffffffffffff168152602001600073ffffffffffffffffffffffffffffffffffffffff168152602001600081526020016000151581526020016060815260200160608152602001606081526020016060815260200160608152602001606081525090565b82805461244590612ecd565b90600052602060002090601f01602090048101928261246757600085556124ae565b82601f1061248057805160ff19168380011785556124ae565b828001600101855582156124ae579182015b828111156124ad578251825591602001919060010190612492565b5b5090506124bb91906124bf565b5090565b5b808211156124d85760008160009055506001016124c0565b5090565b60006124ef6124ea84612d11565b612ce0565b90508281526020810184848401111561250757600080fd5b612512848285612e8b565b509392505050565b60008135905061252981612fe6565b92915050565b600082601f83011261254057600080fd5b81356125508482602086016124dc565b91505092915050565b60008135905061256881612ffd565b92915050565b6000806040838503121561258157600080fd5b600061258f8582860161251a565b92505060206125a085828601612559565b9150509250929050565b60008060008060008060008060006101208a8c0312156125c957600080fd5b60006125d78c828d0161251a565b99505060206125e88c828d01612559565b98505060406125f98c828d01612559565b97505060608a013567ffffffffffffffff81111561261657600080fd5b6126228c828d0161252f565b96505060808a013567ffffffffffffffff81111561263f57600080fd5b61264b8c828d0161252f565b95505060a08a013567ffffffffffffffff81111561266857600080fd5b6126748c828d0161252f565b94505060c08a013567ffffffffffffffff81111561269157600080fd5b61269d8c828d0161252f565b93505060e08a013567ffffffffffffffff8111156126ba57600080fd5b6126c68c828d0161252f565b9250506101008a013567ffffffffffffffff8111156126e457600080fd5b6126f08c828d0161252f565b9150509295985092959850929598565b600061270c83836129ac565b905092915050565b61271d81612e43565b82525050565b61272c81612e31565b82525050565b61273b81612e31565b82525050565b600061274c82612d51565b6127568185612d74565b93508360208202850161276885612d41565b8060005b858110156127a457848403895281516127858582612700565b945061279083612d67565b925060208a0199505060018101905061276c565b50829750879550505050505092915050565b6127bf81612e55565b82525050565b6127ce81612e55565b82525050565b60006127df82612d5c565b6127e98185612d85565b93506127f9818560208601612e9a565b61280281612fd5565b840191505092915050565b600061281882612d5c565b6128228185612d96565b9350612832818560208601612e9a565b61283b81612fd5565b840191505092915050565b6000612853601b83612d96565b91507f54686973206974656d2077617320616c726561647920736f6c642e00000000006000830152602082019050919050565b6000612893601483612d96565b91507f5072696365206d7573742062652076616c69642e0000000000000000000000006000830152602082019050919050565b60006128d3602983612d96565b91507f5072696365206d75737420626520657175616c20746f20746865206c6973746960008301527f6e672070726963652e00000000000000000000000000000000000000000000006020830152604082019050919050565b6000612939601f83612d96565b91507f5265656e7472616e637947756172643a207265656e7472616e742063616c6c006000830152602082019050919050565b6000612979601383612d96565b91507f496e73756666696369656e742066756e64732e000000000000000000000000006000830152602082019050919050565b60006101a0830160008301516129c56000860182612ae8565b5060208301516129d86020860182612723565b5060408301516129eb6040860182612ae8565b5060608301516129fe6060860182612714565b506080830151612a116080860182612714565b5060a0830151612a2460a0860182612ae8565b5060c0830151612a3760c08601826127b6565b5060e083015184820360e0860152612a4f82826127d4565b915050610100830151848203610100860152612a6b82826127d4565b915050610120830151848203610120860152612a8782826127d4565b915050610140830151848203610140860152612aa382826127d4565b915050610160830151848203610160860152612abf82826127d4565b915050610180830151848203610180860152612adb82826127d4565b9150508091505092915050565b612af181612e81565b82525050565b612b0081612e81565b82525050565b6000606082019050612b1b6000830186612732565b612b286020830185612732565b612b356040830184612af7565b949350505050565b600061014082019050612b53600083018d612732565b612b60602083018c612732565b612b6d604083018b612af7565b612b7a606083018a6127c5565b8181036080830152612b8c818961280d565b905081810360a0830152612ba0818861280d565b905081810360c0830152612bb4818761280d565b905081810360e0830152612bc8818661280d565b9050818103610100830152612bdd818561280d565b9050818103610120830152612bf2818461280d565b90509b9a5050505050505050505050565b60006020820190508181036000830152612c1d8184612741565b905092915050565b60006020820190508181036000830152612c3e81612846565b9050919050565b60006020820190508181036000830152612c5e81612886565b9050919050565b60006020820190508181036000830152612c7e816128c6565b9050919050565b60006020820190508181036000830152612c9e8161292c565b9050919050565b60006020820190508181036000830152612cbe8161296c565b9050919050565b6000602082019050612cda6000830184612af7565b92915050565b6000604051905081810181811067ffffffffffffffff82111715612d0757612d06612fa6565b5b8060405250919050565b600067ffffffffffffffff821115612d2c57612d2b612fa6565b5b601f19601f8301169050602081019050919050565b6000819050602082019050919050565b600081519050919050565b600081519050919050565b6000602082019050919050565b600082825260208201905092915050565b600082825260208201905092915050565b600082825260208201905092915050565b6000612db282612e81565b9150612dbd83612e81565b9250827fffffffffffffffffffffffffffffffffffffffffffffffffffffffffffffffff03821115612df257612df1612f48565b5b828201905092915050565b6000612e0882612e81565b9150612e1383612e81565b925082821015612e2657612e25612f48565b5b828203905092915050565b6000612e3c82612e61565b9050919050565b6000612e4e82612e61565b9050919050565b60008115159050919050565b600073ffffffffffffffffffffffffffffffffffffffff82169050919050565b6000819050919050565b82818337600083830152505050565b60005b83811015612eb8578082015181840152602081019050612e9d565b83811115612ec7576000848401525b50505050565b60006002820490506001821680612ee557607f821691505b60208210811415612ef957612ef8612f77565b5b50919050565b6000612f0a82612e81565b91507fffffffffffffffffffffffffffffffffffffffffffffffffffffffffffffffff821415612f3d57612f3c612f48565b5b600182019050919050565b7f4e487b7100000000000000000000000000000000000000000000000000000000600052601160045260246000fd5b7f4e487b7100000000000000000000000000000000000000000000000000000000600052602260045260246000fd5b7f4e487b7100000000000000000000000000000000000000000000000000000000600052604160045260246000fd5b6000601f19601f8301169050919050565b612fef81612e31565b8114612ffa57600080fd5b50565b61300681612e81565b811461301157600080fd5b5056fea2646970667358221220d3ed909cee4552c3836c6580b14934a9349d336c052edbd1a19c7618b16ce18a64736f6c63430008000033",
  "linkReferences": {},
  "deployedLinkReferences": {}
}